:100000000C942A000C9494140C94E4140C9434155D
:100010000C9447000C9447000C9447000C94470044
:100020000C9447000C9447000C9447000C94470034
:100030000C9447000C94521A0C94961A0C94CD1AF6
:100040000C94FB080C9447000C9447000C94470058
:100050000C94470011241FBECFE5D8E0DEBFCDBF12
:1000600013E0A0E6B0E0EAE4F9E402C005900D92E6
:10007000AA3AB107D9F713E0AAEAB3E001C01D928A
:10008000A53DB107E1F70E94B6220C94A3240C947D
:100090000000EF92FF920F931F937B018C0120E0F1
:1000A00030E040E05FE40E94F50388238CF0C80153
:1000B000B70120E030E040E05FE40E94C1010E940F
:1000C000B3049B01AC01205030404040504806C072
:1000D000C801B7010E94B3049B01AC01B901CA0178
:1000E0001F910F91FF90EF900895A0E0B0E0EBE733
:1000F000F0E00C946C24DC012B01FA019C9192300D
:1001000008F439C1EB018881823008F433C194309E
:1001100069F4843009F02FC111969C91119789815F
:10012000981709F428C1AAE8B2E025C1843009F47F
:1001300021C18230A9F4923009F01DC19A01AD01AC
:1001400088E0EA010990AE01E90109929E0181501F
:10015000C1F7E201898111969C918923818308C1AD
:10016000923009F407C112962D903C901397EB0141
:100170008A819B811496AD90BD90CD90DC901797AD
:10018000EC80FD800E811F819101281B390BB90184
:1001900037FF04C066277727621B730B6032710537
:1001A0000CF061C0121613066CF537014801062EDB
:1001B00004C096948794779467940A94D2F721E0C8
:1001C00030E040E050E004C0220F331F441F551FB1
:1001D0006A95D2F721503040404050402E213F21B7
:1001E00040235123211531054105510521F021E01E
:1001F00030E040E050E079018A01E628F72808293C
:1002000019293CC0232BD1F1260E371E350146019A
:10021000062E04C096948794779467940A94D2F734
:1002200021E030E040E050E004C0220F331F441FC3
:10023000551F6A95D2F721503040404050402A2146
:100240003B214C215D21211531054105510521F04E
:1002500021E030E040E050E059016A01A628B728CB
:10026000C828D9280BC0821593052CF01C01AA249C
:10027000BB24650103C0EE24FF24870111969C91E5
:10028000D20111968C91981709F445C0992339F041
:10029000A80197012A193B094C095D0906C0A6016E
:1002A00095012E193F09400B510B57FD08C01182D3
:1002B0003382228224833583468357831DC081E0A5
:1002C00081833382228288279927DC01821B930B4A
:1002D000A40BB50B84839583A683B7830DC0220F2F
:1002E000331F441F551F24833583468357838281E0
:1002F000938101979383828324813581468157813D
:10030000DA01C9010197A109B1098F5F9F4FAF4F72
:10031000BF4328F30BC0918333822282EA0CFB1C7B
:100320000C1D1D1DE482F5820683178383E0808304
:10033000248135814681578157FF1AC0C901AA27F8
:1003400097FDA095BA2F81709070A070B0705695EF
:10035000479537952795822B932BA42BB52B848318
:100360009583A683B7838281938101969383828349
:10037000DF0101C0D201CD01CDB7DEB7E2E10C94BF
:100380008824A0E2B0E0E7ECF1E00C9478246983E3
:100390007A838B839C832D833E834F835887E9E048
:1003A000EE2EF12CEC0EFD1ECE010196B7010E943F
:1003B000A4068E010F5E1F4FCE010596B8010E9464
:1003C000A4068A8991E089278A8BC701B801AE010A
:1003D000475E5F4F0E9475000E94CF05A096E6E041
:1003E0000C949424A0E2B0E0E8EFF1E00C947824BF
:1003F00069837A838B839C832D833E834F835887C5
:10040000F9E0EF2EF12CEC0EFD1ECE010196B701A6
:100410000E94A4068E010F5E1F4FCE010596B80103
:100420000E94A406C701B801AE01475E5F4F0E945B
:1004300075000E94CF05A096E6E00C949424A0E2FB
:10044000B0E0E5E2F2E00C946C2469837A838B835C
:100450009C832D833E834F835887CE010196BE0136
:10046000675F7F4F0E94A406CE010596BE016F5EB6
:100470007F4F0E94A4069985923088F08989823046
:10048000C8F0943019F4823051F404C0843029F457
:10049000923081F48AE892E0C6C0923049F420E0BC
:1004A0009A858A89981321E02A87CE010996BBC0D4
:1004B000823049F420E09A858A89981321E02A8BBA
:1004C000CE014196B0C02D843E844F8458886D88FB
:1004D0007E888F88988CEE24FF248701AA24BB2471
:1004E000650140E050E060E070E0E0E0F0E0C10174
:1004F00081709070892BE9F0E60CF71C081D191D1E
:100500009A01AB012A0D3B1D4C1D5D1D80E090E062
:10051000A0E0B0E0E614F7040805190520F481E036
:1005200090E0A0E0B0E0BA01A901480F591F6A1F8E
:100530007B1FAA0CBB1CCC1CDD1C97FE08C081E0F5
:1005400090E0A0E0B0E0A82AB92ACA2ADB2A3196B6
:10055000E032F10549F0660C771C881C991C569412
:10056000479437942794C3CFFA85EA892B893C892D
:100570008B859C85280F391F2E5F3F4F17C0CA01FE
:1005800081709070892B61F016950795F794E79428
:1005900080E090E0A0E0B0E8E82AF92A0A2B1B2BC3
:1005A00076956795579547952F5F3F4F77FDE7CF36
:1005B0000CC0440F551F661F771F17FD4160EE0CDE
:1005C000FF1C001F111F21503040403090E05907A0
:1005D00090E0690790E4790760F32B8F3C8FDB0193
:1005E000CA018F779070A070B07080349105A1051A
:1005F000B10561F447FD0AC0E114F10401051105DC
:1006000029F0405C5F4F6F4F7F4F40781A8EFE1786
:1006100011F081E08A8F4D8F5E8F6F8F78A383E01A
:10062000898FCE0149960E94CF05A096E2E10C94F5
:100630008824A8E1B0E0EFE1F3E00C94742469832E
:100640007A838B839C832D833E834F835887B9E0C5
:10065000EB2EF12CEC0EFD1ECE010196B7010E948F
:10066000A4068E010F5E1F4FCE010596B8010E94B1
:10067000A4062985223008F47EC03989323010F46E
:10068000B8017CC08A859A8989278A87243011F02D
:10069000223031F4231709F06EC06AE872E06EC0B0
:1006A000343039F41D861E861F86188A1C861B86E8
:1006B00004C0323021F484E08987B7015FC02B8504
:1006C0003C858B899C89281B390B3C872B87ED84C3
:1006D000FE840F851889AD88BE88CF88D88CEA142F
:1006E000FB040C051D0540F4EE0CFF1C001F111F40
:1006F000215030403C872B8720E030E040E050E044
:1007000080E090E0A0E0B0E460E070E0EA14FB0478
:100710000C051D0540F0282B392B4A2B5B2BEA18C2
:10072000FB080C091D09B695A79597958795EE0CC2
:10073000FF1C001F111F6F5F7F4F6F31710531F775
:10074000DA01C9018F779070A070B0708034910584
:10075000A105B10561F427FD0AC0E114F10401050A
:10076000110529F0205C3F4F4F4F5F4F20782D87B8
:100770003E874F87588BBE01675F7F4FCB010E943A
:10078000CF056896EAE00C949024A8E1B0E0EBEC89
:10079000F3E00C94782469837A838B839C832D8384
:1007A0003E834F83588789E0E82EF12CEC0EFD1E26
:1007B000CE010196B7010E94A4068E010F5E1F4F65
:1007C000CE010596B8010E94A4068985823040F0CA
:1007D0008989823028F0C701B8010E941C0701C036
:1007E0008FEF6896E6E00C949424A8E1B0E0EBEF7C
:1007F000F3E00C94782469837A838B839C832D8324
:100800003E834F83588789E0E82EF12CEC0EFD1EC5
:10081000CE010196B7010E94A4068E010F5E1F4F04
:10082000CE010596B8010E94A4068985823040F069
:100830008989823028F0C701B8010E941C0701C0D5
:100840008FEF6896E6E00C949424A8E1B0E0EBE228
:10085000F4E00C94782469837A838B839C832D83C2
:100860003E834F83588789E0E82EF12CEC0EFD1E65
:10087000CE010196B7010E94A4068E010F5E1F4FA4
:10088000CE010596B8010E94A4068985823040F009
:100890008989823028F0C701B8010E941C0701C075
:1008A00081E06896E6E00C949424A8E0B0E0EBE5E3
:1008B000F4E00C9475249B01AC0183E08983DA0198
:1008C000C9018827B7FD83959927AA27BB27B82E8A
:1008D000211531054105510519F482E089833AC09B
:1008E0008823A9F0203080E0380780E0480780E8BE
:1008F000580729F460E070E080E09FEC30C0EE24FF
:10090000FF248701E21AF30A040B150B02C07901D8
:100910008A018EE1C82ED12CDC82CB82ED82FE8250
:100920000F831887C801B7010E9480050197181628
:10093000190684F4082E04C0EE0CFF1C001F111FC2
:100940000A94D2F7ED82FE820F831887C81AD90A5B
:10095000DC82CB82BA82CE0101960E94CF05289616
:10096000E9E00C949124ACE0B0E0E9EBF4E00C9405
:100970007C2469837A838B839C83CE010196BE019C
:100980006B5F7F4F0E94A4068D81823061F18230BF
:1009900050F1843021F48E81882351F12EC02F81B3
:1009A000388537FD20C06E812F3131051CF066235C
:1009B000F9F023C08EE190E0821B930B29853A85E4
:1009C0004B855C8504C056954795379527958A9544
:1009D000D2F76623B1F050954095309521953F4F61
:1009E0004F4F5F4F0EC020E030E040E050E009C0C4
:1009F0002FEF3FEF4FEF5FE704C020E030E040E033
:100A000050E8B901CA012C96E2E00C949824A8E0C1
:100A1000B0E0EDE0F5E00C9474247B018C016115ED
:100A200071058105910519F482E0898360C083E036
:100A300089838EE1C82ED12CDC82CB82ED82FE82AE
:100A40000F831887C801B7010E948005FC01319708
:100A5000F7FF3BC0222733272E1B3F0B57016801AE
:100A6000022E04C0D694C794B794A7940A94D2F7E0
:100A700040E050E060E070E081E090E0A0E0B0E0B5
:100A800004C0880F991FAA1FBB1F2A95D2F7019790
:100A9000A109B1098E219F21A023B1230097A105AF
:100AA000B10521F041E050E060E070E04A295B29A7
:100AB0006C297D294D835E836F8378878EE190E07A
:100AC0008E1B9F0B9C838B8312C0309781F00E2E60
:100AD00004C0EE0CFF1C001F111F0A94D2F7ED8218
:100AE000FE820F831887CE1ADF0ADC82CB821A823D
:100AF000CE0101960E94CF052896EAE00C9490243E
:100B0000EF92FF920F931F937B018C0180E0E81618
:100B100080E0F80681E0080780E0180788F48FEF8E
:100B2000E816F1040105110531F028F088E090E0A5
:100B3000A0E0B0E017C080E090E0A0E0B0E012C01C
:100B400080E0E81680E0F80680E0080781E01807FA
:100B500028F088E190E0A0E0B0E004C080E190E0FF
:100B6000A0E0B0E020E230E040E050E0281B390B8C
:100B70004A0B5B0B04C016950795F794E7948A958A
:100B8000D2F7F701EE56FD4F8081281B310941094C
:100B90005109C9011F910F91FF90EF900895DF92C5
:100BA000EF92FF920F931F93FC01E480F580068182
:100BB0001781D1808081823048F480E090E0A0E10C
:100BC000B0E0E82AF92A0A2B1B2BA5C0843009F4CF
:100BD0009FC0823021F4EE24FF24870105C0E11478
:100BE000F1040105110519F4E0E0F0E096C062811E
:100BF00073819FEF623879070CF05BC022E83FEF0A
:100C0000261B370B2A3131052CF020E030E040E084
:100C100050E02AC0B801A701022E04C0769567955E
:100C2000579547950A94D2F781E090E0A0E0B0E0B4
:100C300004C0880F991FAA1FBB1F2A95D2F70197DE
:100C4000A109B1098E219F21A023B1230097A105FD
:100C5000B10521F081E090E0A0E0B0E09A01AB01A5
:100C6000282B392B4A2B5B2BDA01C9018F77907027
:100C7000A070B07080349105A105B10539F427FF4B
:100C800009C0205C3F4F4F4F5F4F04C0215C3F4F76
:100C90004F4F5F4FE0E0F0E02030A0E03A07A0E0E7
:100CA0004A07A0E45A0710F0E1E0F0E079018A0178
:100CB00027C06038710564F5FB01E158FF4FD8018A
:100CC000C7018F779070A070B07080349105A10536
:100CD000B10539F4E7FE0DC080E490E0A0E0B0E09B
:100CE00004C08FE390E0A0E0B0E0E80EF91E0A1F18
:100CF0001B1F17FF05C016950795F794E7943196CB
:100D000087E016950795F794E7948A95D1F705C083
:100D1000EE24FF248701EFEFF0E06E2F6795662742
:100D20006795902F9F77D794DD24D7948E2F869543
:100D3000492F462B582F5D29B701CA011F910F91EA
:100D4000FF90EF90DF900895FC01DB01408151811D
:100D50002281622F6F7770E0221F2227221F93814A
:100D6000892F880F822B282F30E0991F9927991FF0
:100D700011969C93119721153105A9F5411551053F
:100D80006105710511F482E037C082E89FEF139688
:100D90009C938E9312979A01AB0167E0220F331F49
:100DA000441F551F6A95D1F783E08C930DC0220F25
:100DB000331F441F551F12968D919C9113970197D5
:100DC00013969C938E931297203080E0380780E032
:100DD000480780E4580758F314962D933D934D939C
:100DE0005C93179708952F3F310579F4411551050C
:100DF0006105710519F484E08C93089564FF03C0C4
:100E000081E08C9312C01C9210C02F573040139673
:100E10003C932E93129783E08C9387E0440F551FE9
:100E2000661F771F8A95D1F7706414964D935D9372
:100E30006D937C93179708951F93DC01FB019C91A0
:100E4000923008F447C08081823008F443C0943067
:100E500051F411961C91843099F58181682F70E0CE
:100E6000611B71093FC0843021F0923031F482302F
:100E7000B9F18181882389F12DC011961C911197B8
:100E80008230F1F081811817D9F412962D913C919E
:100E90001397828193818217930794F0281739075B
:100EA000BCF014968D919D910D90BC91A02D248144
:100EB000358146815781281739074A075B0718F49F
:100EC000112341F00AC082179307A407B50740F425
:100ED000112319F061E070E005C06FEF7FEF02C0F1
:100EE00060E070E0CB011F910895DF93CF93CDB701
:100EF000DEB7A7E2B0E0E7E2F0E080818F7B8C9381
:100F0000A7E2B0E0E7E2F0E080818F778C93A7E280
:100F1000B0E0E7E2F0E080818F7D8C93A6E2B0E064
:100F2000E6E2F0E0808184608C93A6E2B0E0E6E245
:100F3000F0E0808182608C93A6E2B0E0E6E2F0E02F
:100F4000808181608C93A6E2B0E0E6E2F0E08081EF
:100F500080688C93A6E2B0E0E6E2F0E08081877FD3
:100F60008C93A6E2B0E0E6E2F0E080818F7D8C9386
:100F7000CF91DF910895DF93CF93CDB7DEB7289758
:100F80000FB6F894DEBF0FBECDBF8E8378876F8318
:100F90001A821B821C821D8219828091AE038823D3
:100FA00009F05DC0A7E2B0E0E7E2F0E08081807E7A
:100FB0008C93A7E2B0E0E7E2F0E090818E81892B8C
:100FC0008C93A6E2B0E0E6E2F0E0808180648C934E
:100FD0000BC08A819B81AC81BD810196A11DB11D91
:100FE0008A839B83AC83BD83E6E2F0E080818295B7
:100FF0008F70882F90E081709070009761F48A81E3
:101000009B81AC81BD81803523EC920720E0A20753
:1010100020E0B207F1F68A819B81AC81BD818035E9
:1010200023EC920720E0A20720E0B20719F481E048
:1010300089830AC081E08093AE03A6E2B0E0E6E2D5
:10104000F0E0808180618C93E4E2F0E08081918126
:10105000EF81F885918380831092AE0302C083E014
:101060008983898128960FB6F894DEBF0FBECDBF65
:10107000CF91DF910895DF93CF9300D000D000D0BF
:10108000CDB7DEB78A837C836B835E834D83198201
:101090008091AE038823A9F58B819C81009721F074
:1010A0008D819E81009719F482E089832CC0109273
:1010B000B50381E08093AE038B819C819093AB0359
:1010C0008093AA038D819E819093AD038093AC039E
:1010D000A7E2B0E0E7E2F0E08081982F907F8A817C
:1010E000892B8C93A6E2B0E0E6E2F0E08081806498
:1010F0008C93A6E2B0E0E6E2F0E0808188608C9319
:1011000002C083E08983898126960FB6F894DEBFFA
:101110000FBECDBFCF91DF910895DF93CF9300D065
:101120000F92CDB7DEB79B838A8319828A819B8118
:10113000009711F482E089838091AE03882309F03F
:1011400051C081E08093AE0381E08093B503EA81D2
:10115000FB81808191819093B0038093AF03EA81FA
:10116000FB8184818093B403EA81FB818281938136
:101170009093B2038093B103EA81FB8185819681CC
:101180009093AD038093AC031092B303A7E2B0E059
:10119000E7E2F0E08081807E8C93A7E2B0E0E7E2B6
:1011A000F0E040812091B1033091B2038091B3030C
:1011B000882F90E0880F991FF901E80FF91F8081AF
:1011C0009181842B8C93A6E2B0E0E6E2F0E080818E
:1011D00080648C93A6E2B0E0E6E2F0E08081886073
:1011E0008C9302C083E0898389810F900F900F90C8
:1011F000CF91DF9108951F920F920FB60F92112495
:101200002F933F934F935F936F937F938F939F930E
:10121000AF93BF93EF93FF93DF93CF93CDB7DEB739
:101220008091B503882301F5A091AA03B091AB0387
:10123000E4E2F0E08081918111969C938E9310926C
:10124000AE038091AC039091AD03009729F0E0913B
:10125000AC03F091AD030995A6E2B0E0E6E2F0E060
:101260008081877F8C9357C08091B503813009F0CE
:1012700052C02091B1033091B2038091B303882F03
:1012800090E0880F991FD901A80FB91FE4E2F0E0A0
:101290008081918111969C938E938091B3038F5F8F
:1012A0008093B3039091B3038091B403981779F4BA
:1012B0001092AE03E091AC03F091AD030995A6E264
:1012C000B0E0E6E2F0E08081877F8C9324C0A7E263
:1012D000B0E0E7E2F0E08081807E8C93A7E2B0E0AE
:1012E000E7E2F0E040812091B1033091B2038091B8
:1012F000B303882F90E0880F991FF901E80FF91FB9
:1013000080819181842B8C93A6E2B0E0E6E2F0E04C
:10131000808180648C93CF91DF91FF91EF91BF9199
:10132000AF919F918F917F916F915F914F913F917D
:101330002F910F900FBE0F901F901895DF93CF93B2
:10134000CDB7DEB76D970FB6F894DEBF0FBECDBF39
:101350008D8F80E061E040E00E94B11080E060E0AD
:1013600040E00E94B1108D8D82958F70982F917002
:1013700080E063E0492F0E94B1108D8D82958695A3
:101380008770982F917080E064E0492F0E94B1101F
:101390008D8D8295869586958370982F917080E0CB
:1013A00065E0492F0E94B1108D8D982F991F9927C4
:1013B000991F80E066E0492F0E94B11080E062E052
:1013C00041E00E94B11080E090E0A0E4B0E4898F99
:1013D0009A8FAB8FBC8F698D7A8D8B8D9C8D20E021
:1013E00030E04AEF54E40E941F02DC01CB018D8BF8
:1013F0009E8BAF8BB88F6D897E898F89988D20E009
:1014000030E040E85FE30E94250488232CF481E06B
:1014100090E09C8B8B8B3FC06D897E898F89988DE6
:1014200020E03FEF4FE757E40E94C50318164CF544
:10143000698D7A8D8B8D9C8D20E030E040E251E407
:101440000E941F02DC01CB01BC01CD010E944900BA
:10145000DC01CB019C8B8B8B0FC088EC90E09A8BCE
:10146000898B89899A890197F1F79A8B898B8B8966
:101470009C8901979C8B8B8B8B899C89009769F742
:1014800014C06D897E898F89988D0E944900DC0186
:10149000CB019C8B8B8B8B899C89988B8F878F85BD
:1014A00098890197F1F7988B8F8780E062E040E0A0
:1014B0000E94B1108D8D982F917080E063E0492FCC
:1014C0000E94B1108D8D8695982F917080E064E018
:1014D000492F0E94B1108D8D86958695982F917019
:1014E00080E065E0492F0E94B1108D8D869586952C
:1014F0008695982F917080E066E0492F0E94B11088
:1015000080E062E041E00E94B11080E090E0A0E461
:10151000B0E48B879C87AD87BE876B857C858D8586
:101520009E8520E030E04AEF54E40E941F02DC0177
:10153000CB018F839887A987BA876F817885898542
:101540009A8520E030E040E85FE30E94250488238C
:101550002CF481E090E09E838D833FC06F8178857D
:1015600089859A8520E03FEF4FE757E40E94C50345
:1015700018164CF56B857C858D859E8520E030E0C6
:1015800040E251E40E941F02DC01CB01BC01CD010D
:101590000E944900DC01CB019E838D830FC088EC43
:1015A00090E09C838B838B819C810197F1F79C83D6
:1015B0008B838D819E8101979E838D838D819E81FA
:1015C000009769F714C06F81788589859A850E9494
:1015D0004900DC01CB019E838D838D819E819A839E
:1015E000898389819A810197F1F79A83898380E0C1
:1015F00062E040E00E94B1106D960FB6F894DEBF35
:101600000FBECDBFCF91DF910895DF93CF93CDB7BC
:10161000DEB76D970FB6F894DEBF0FBECDBF8D8FCE
:1016200080E061E041E00E94B11080E060E040E0D5
:101630000E94B1108D8D82958F70982F917080E0EF
:1016400063E0492F0E94B1108D8D82958695877039
:10165000982F917080E064E0492F0E94B1108D8D29
:101660008295869586958370982F917080E065E0CD
:10167000492F0E94B1108D8D982F991F9927991F7E
:1016800080E066E0492F0E94B11080E062E041E016
:101690000E94B11080E090E0A0E4B0E4898F9A8FBE
:1016A000AB8FBC8F698D7A8D8B8D9C8D20E030E067
:1016B0004AEF54E40E941F02DC01CB018D8B9E8B0C
:1016C000AF8BB88F6D897E898F89988D20E030E04F
:1016D00040E85FE30E94250488232CF481E090E039
:1016E0009C8B8B8B3FC06D897E898F89988D20E084
:1016F0003FEF4FE757E40E94C50318164CF5698D7C
:101700007A8D8B8D9C8D20E030E040E251E40E9488
:101710001F02DC01CB01BC01CD010E944900DC01AC
:10172000CB019C8B8B8B0FC088EC90E09A8B898BC4
:1017300089899A890197F1F79A8B898B8B899C8982
:1017400001979C8B8B8B8B899C89009769F714C0C0
:101750006D897E898F89988D0E944900DC01CB01BB
:101760009C8B8B8B8B899C89988B8F878F85988995
:101770000197F1F7988B8F8780E062E040E00E944C
:10178000B1108D8D982F917080E063E0492F0E94F9
:10179000B1108D8D8695982F917080E064E0492F6F
:1017A0000E94B1108D8D86958695982F917080E05E
:1017B00065E0492F0E94B1108D8D8695869586959E
:1017C000982F917080E066E0492F0E94B11080E070
:1017D00062E041E00E94B11080E090E0A0E4B0E45B
:1017E0008B879C87AD87BE876B857C858D859E8525
:1017F00020E030E04AEF54E40E941F02DC01CB01FC
:101800008F839887A987BA876F81788589859A851C
:1018100020E030E040E85FE30E94250488232CF4B8
:1018200081E090E09E838D833FC06F8178858985BC
:101830009A8520E03FEF4FE757E40E94C503181652
:101840004CF56B857C858D859E8520E030E040E2FF
:1018500051E40E941F02DC01CB01BC01CD010E94BA
:101860004900DC01CB019E838D830FC088EC90E0A2
:101870009C838B838B819C810197F1F79C838B8365
:101880008D819E8101979E838D838D819E8100979E
:1018900069F714C06F81788589859A850E9449000F
:1018A000DC01CB019E838D838D819E819A83898308
:1018B00089819A810197F1F79A83898380E062E0B8
:1018C00040E00E94B1106D960FB6F894DEBF0FBED7
:1018D000CDBFCF91DF910895DF93CF93CDB7DEB722
:1018E0006C970FB6F894DEBF0FBECDBF80E090E0DE
:1018F000A0E2B2E4898F9A8FAB8FBC8F698D7A8D0D
:101900008B8D9C8D20E030E04AEF54E40E941F0252
:10191000DC01CB018D8B9E8BAF8BB88F6D897E895F
:101920008F89988D20E030E040E85FE30E94250435
:1019300088232CF481E090E09C8B8B8B3FC06D89D9
:101940007E898F89988D20E03FEF4FE757E40E9412
:10195000C50318164CF5698D7A8D8B8D9C8D20E012
:1019600030E040E251E40E941F02DC01CB01BC01E7
:10197000CD010E944900DC01CB019C8B8B8B0FC0F9
:1019800088EC90E09A8B898B89899A890197F1F785
:101990009A8B898B8B899C8901979C8B8B8B8B89EC
:1019A0009C89009769F714C06D897E898F89988D0D
:1019B0000E944900DC01CB019C8B8B8B8B899C891D
:1019C000988B8F878F8598890197F1F7988B8F87F0
:1019D00080E063E040E00E94B11080E064E041E01C
:1019E0000E94B11080E065E040E00E94B11080E00C
:1019F00066E040E00E94B11080E062E041E00E94B9
:101A0000B11080E090E0A0E4B0E48B879C87AD87C4
:101A1000BE876B857C858D859E8520E030E04AEF12
:101A200054E40E941F02DC01CB018F839887A987B1
:101A3000BA876F81788589859A8520E030E040E813
:101A40005FE30E94250488232CF481E090E09E83CC
:101A50008D833FC06F81788589859A8520E03FEF2F
:101A60004FE757E40E94C50318164CF56B857C853B
:101A70008D859E8520E030E040E251E40E941F0207
:101A8000DC01CB01BC01CD010E944900DC01CB018E
:101A90009E838D830FC088EC90E09C838B838B8129
:101AA0009C810197F1F79C838B838D819E810197A7
:101AB0009E838D838D819E81009769F714C06F810D
:101AC000788589859A850E944900DC01CB019E8337
:101AD0008D838D819E819A83898389819A810197E3
:101AE000F1F79A83898380E062E040E00E94B110C0
:101AF00088E20E949E098CE00E949E0981E00E947B
:101B00009E096C960FB6F894DEBF0FBECDBFCF9185
:101B1000DF910895DF93CF93CDB7DEB761970FB60E
:101B2000F894DEBF0FBECDBF998B888B1F8680C017
:101B30008F85282F30E088899989FC01E20FF31FF7
:101B400080810E94050B8F858F5F8F8780E090E0FA
:101B5000A0E8BFE38B879C87AD87BE876B857C85BC
:101B60008D859E8520E030E04AEF54E40E941F02FC
:101B7000DC01CB018F839887A987BA876F8178852D
:101B800089859A8520E030E040E85FE30E942504E3
:101B900088232CF481E090E09E838D833FC06F8189
:101BA000788589859A8520E03FEF4FE757E40E94CA
:101BB000C50318164CF56B857C858D859E8520E0C8
:101BC00030E040E251E40E941F02DC01CB01BC0185
:101BD000CD010E944900DC01CB019E838D830FC0A3
:101BE00088EC90E09C838B838B819C810197F1F73B
:101BF0009C838B838D819E8101979E838D838D81B4
:101C00009E81009769F714C06F81788589859A85D0
:101C10000E944900DC01CB019E838D838D819E81D2
:101C20009A83898389819A810197F1F79A838983BD
:101C30008F85282F30E088899989FC01E20FF31FF6
:101C40008081882309F074CF61960FB6F894DEBFC7
:101C50000FBECDBFCF91DF910895DF93CF9300D01A
:101C60000F92CDB7DEB78A836B8319828A8188236E
:101C700019F48B8189830DC08A81813021F48B8195
:101C8000885D898306C08A81823019F48B81805BEC
:101C90008983898180580E949E090F900F900F9030
:101CA000CF91DF910895DF93CF93CDB7DEB727971C
:101CB0000FB6F894DEBF0FBECDBF9C838B836D83C0
:101CC0004E832F831A828D81882F90E0880F991F71
:101CD000880F991F880F991F8A838A81805C0E94D0
:101CE0009E0919820EC08981282F30E08B819C814A
:101CF000FC01E20FF31F80810E94050B89818F5F39
:101D000089838981883078F38E816F810E942D0EBE
:101D10008D810E94050B27960FB6F894DEBF0FBE8B
:101D2000CDBFCF91DF910895DF93CF93CDB7DEB7CD
:101D30002D970FB6F894DEBF0FBECDBF6A877B87A5
:101D40008C879D878A859B85AC85BD85BB239CF44C
:101D50008DE20E94050B8A859B85AC85BD85B0957B
:101D6000A095909581959F4FAF4FBF4F8A879B87D6
:101D7000AC87BD8703C080E20E94050B198680E016
:101D80009AECAAE9BBE38D839E83AF83B8874CC0EE
:101D90008A859B85AC85BD852D813E814F81588587
:101DA000BC01CD010E945124DA01C9012AE030E0D2
:101DB00040E050E0BC01CD010E945124DC01CB0188
:101DC00089839A83AB83BC8389819A81AB81BC81EF
:101DD0000097A105B10519F48985882339F0898117
:101DE000805D0E94050B81E089870CC08D819E81FA
:101DF000AF81B88581309105A105B10519F480E363
:101E00000E94050B8D819E81AF81B8852AE030E06C
:101E100040E050E0BC01CD010E945124DA01C9012B
:101E20008D839E83AF83B8878D819E81AF81B88576
:101E3000181619061A061B060CF4AACF2D960FB613
:101E4000F894DEBF0FBECDBFCF91DF910895DF9331
:101E5000CF93CDB7DEB72E970FB6F894DEBF0FBE87
:101E6000CDBF81E00E949E0980E090E0A0E4B0E454
:101E70008B879C87AD87BE876B857C858D859E858E
:101E800020E030E04AEF54E40E941F02DC01CB0165
:101E90008F839887A987BA876F81788589859A8586
:101EA00020E030E040E85FE30E94250488232CF422
:101EB00081E090E09E838D833FC06F817885898526
:101EC0009A8520E03FEF4FE757E40E94C5031816BC
:101ED0004CF56B857C858D859E8520E030E040E269
:101EE00051E40E941F02DC01CB01BC01CD010E9424
:101EF0004900DC01CB019E838D830FC088EC90E00C
:101F00009C838B838B819C810197F1F79C838B83CE
:101F10008D819E8101979E838D838D819E81009707
:101F200069F714C06F81788589859A850E94490078
:101F3000DC01CB019E838D838D819E819A83898371
:101F400089819A810197F1F79A8389832E960FB63A
:101F5000F894DEBF0FBECDBFCF91DF910895DF9320
:101F6000CF93CDB7DEB762970FB6F894DEBF0FBE42
:101F7000CDBF6E877F87888B998B4A8B6E857F85D7
:101F80008889998920E030E040E050E00E942504F3
:101F900088236CF48DE20E94050B8E859F85A889AD
:101FA000B989B0588E879F87A88BB98B03C080E210
:101FB0000E94050B6E857F85888999890E94B304EC
:101FC000DC01CB018A879B87AC87BD878A859B858F
:101FD000AC85BD85BC01CD010E94940E8EE20E94AD
:101FE000050B6A857B858C859D850E9455049B0128
:101FF000AC016E857F85888999890E94C101DC01C9
:10200000CB018E839F83A887B9871D8237C06E81DD
:102010007F818885998520E030E040E251E40E948C
:102020001F02DC01CB018E839F83A887B9876E8155
:102030007F81888599850E94B304DC01CB01898367
:102040009A83AB83BC838981805D0E94050B698183
:102050007A818B819C810E9455049B01AC016E8129
:102060007F81888599850E94C101DC01CB018E8327
:102070009F83A887B9878D818F5F8D839D818A8992
:10208000981728F262960FB6F894DEBF0FBECDBF48
:10209000CF91DF910895DF93CF9300D00F92CDB70A
:1020A000DEB79B838A8319828A819B81009761F0C6
:1020B000198281E061E041E00E94B11081E062E0BC
:1020C00040E00E94B11002C082E0898389810F90B4
:1020D0000F900F90CF91DF910895DF93CF9300D0B1
:1020E0000F92CDB7DEB79B838A8319828A819B8149
:1020F000009761F0198281E061E040E00E94B11038
:1021000081E062E041E00E94B11002C082E0898378
:1021100089810F900F900F90CF91DF910895DF93F9
:10212000CF9300D00F92CDB7DEB79B838A831982FD
:102130008A819B81009761F0198281E061E040E033
:102140000E94B11081E062E040E00E94B11002C044
:1021500082E0898389810F900F900F90CF91DF915A
:102160000895DF93CF93CDB7DEB728970FB6F894D5
:10217000DEBF0FBECDBF8A836B834C8319828B81F8
:10218000883008F0F3C08C81882309F077C08A81F9
:10219000282F30E038872F838F81988581309105F3
:1021A00059F12F813885223031052CF48F819885A3
:1021B000009769F060C02F8138852230310589F1A0
:1021C0008F8198858330910509F440C054C0ABE3FA
:1021D000B0E0EBE3F0E08081482F8B81282F30E0E6
:1021E00081E090E0022E02C0880F991F0A94E2F766
:1021F000809584238C93BAC0A8E3B0E0E8E3F0E0D4
:102200008081482F8B81282F30E081E090E0022EE2
:1022100002C0880F991F0A94E2F7809584238C935B
:10222000A5C0A5E3B0E0E5E3F0E08081482F8B8115
:10223000282F30E081E090E0022E02C0880F991F25
:102240000A94E2F7809584238C9390C0A2E3B0E0D7
:10225000E2E3F0E08081482F8B81282F30E081E09D
:1022600090E0022E02C0880F991F0A94E2F7809531
:1022700084238C937BC081E0898378C08C818130FA
:1022800009F072C08A81282F30E03E832D838D8132
:102290009E818130910549F12D813E8122303105A9
:1022A0002CF48D819E81009761F05BC02D813E8171
:1022B0002230310571F18D819E8183309105E9F1E4
:1022C00050C0ABE3B0E0EBE3F0E08081482F8B81BE
:1022D000282F30E081E090E0022E02C0880F991F85
:1022E0000A94E2F7842B8C9341C0A8E3B0E0E8E3C2
:1022F000F0E08081482F8B81282F30E081E090E052
:10230000022E02C0880F991F0A94E2F7842B8C9347
:102310002DC0A5E3B0E0E5E3F0E08081482F8B819C
:10232000282F30E081E090E0022E02C0880F991F34
:102330000A94E2F7842B8C9319C0A2E3B0E0E2E3A5
:10234000F0E08081482F8B81282F30E081E090E001
:10235000022E02C0880F991F0A94E2F7842B8C93F7
:1023600005C081E0898302C081E089838981289644
:102370000FB6F894DEBF0FBECDBFCF91DF910895A9
:10238000DF93CF9300D000D00F92CDB7DEB78A8312
:102390006B8319828A81282F30E03D832C838C81C6
:1023A0009D8181309105D1F02C813D812230310514
:1023B0002CF48C819D81009761F01FC02C813D81A0
:1023C0002230310581F08C819D818330910581F02F
:1023D00014C0EBE3F0E08B81808311C0E8E3F0E010
:1023E0008B8180830CC0E5E3F0E08B81808307C0A4
:1023F000E2E3F0E08B81808302C081E08983898100
:102400000F900F900F900F900F90CF91DF91089544
:10241000DF93CF93CDB7DEB727970FB6F894DEBF23
:102420000FBECDBF8A836B835D834C8319828B8102
:10243000883008F079C08C819D81009709F474C0C0
:102440008A81282F30E03F832E834E815F81413087
:10245000510559F18E819F818230910534F42E818E
:102460003F812115310569F05CC04E815F814230AA
:10247000510579F18E819F818330910509F43DC02A
:1024800050C0E9E3F0E08081282F30E08B81882F75
:1024900090E0A90102C0559547958A95E2F7CA01D7
:1024A0008170EC81FD81808341C0E6E3F0E08081B2
:1024B000282F30E08B81882F90E0A90102C055952C
:1024C00047958A95E2F7CA018170EC81FD8180838E
:1024D0002DC0E3E3F0E08081282F30E08B81882F4E
:1024E00090E0A90102C0559547958A95E2F7CA0187
:1024F0008170EC81FD81808319C0E0E3F0E0808190
:10250000282F30E08B81882F90E0A90102C05595DB
:1025100047958A95E2F7CA018170EC81FD8180833D
:1025200005C081E0898302C081E089838981279683
:102530000FB6F894DEBF0FBECDBFCF91DF910895E7
:10254000DF93CF93CDB7DEB7A5E5B0E0E5E5F0E0EA
:10255000808182608C93A5E5B0E0E5E5F0E08081C4
:1025600081608C93ABE5B0E0EBE5F0E080818064C6
:102570008C93CF91DF910895DF93CF93CDB7DEB7E2
:10258000A5E5B0E0E5E5F0E0808188608C93A5E505
:10259000B0E0E5E5F0E080818B7F8C93ABE5B0E0C7
:1025A000EBE5F0E0808180688C93CF91DF91089516
:1025B000DF93CF93CDB7DEB7A4E5B0E0E4E5F0E07C
:1025C00080818F7B8C93ABE5B0E0EBE5F0E0808120
:1025D00080628C93CF91DF910895DF93CF9300D0E9
:1025E00000D0CDB7DEB78A8319828A81282F30E0E8
:1025F0003C832B838B819C8182309105A1F12B81BF
:102600003C812330310534F48B819C8181309105EC
:1026100061F047C02B813C8123303105A9F08B81CB
:102620009C818430910571F13CC0A5E5B0E0E5E501
:10263000F0E080818D7F8C93A5E5B0E0E5E5F0E0EA
:1026400080818E7F8C932FC0A5E5B0E0E5E5F0E0BA
:10265000808182608C93A5E5B0E0E5E5F0E08081C3
:102660008E7F8C9320C0A5E5B0E0E5E5F0E08081A9
:102670008D7F8C93A5E5B0E0E5E5F0E08081816099
:102680008C9311C0A5E5B0E0E5E5F0E080818260C3
:102690008C93A5E5B0E0E5E5F0E0808181608C9366
:1026A00002C081E0898389810F900F900F900F9075
:1026B000CF91DF910895DF93CF9300D000D0CDB7B5
:1026C000DEB78A8319828A81282F30E03C832B83EE
:1026D0008B819C8182309105A1F12B813C8123303B
:1026E000310534F48B819C818130910561F047C0C4
:1026F0002B813C8123303105A9F08B819C81843072
:10270000910571F13CC0A5E5B0E0E5E5F0E0808120
:10271000877F8C93A5E5B0E0E5E5F0E080818B7FD5
:102720008C932FC0A5E5B0E0E5E5F0E080818860FE
:102730008C93A5E5B0E0E5E5F0E080818B7F8C939C
:1027400020C0A5E5B0E0E5E5F0E08081877F8C93CF
:10275000A5E5B0E0E5E5F0E0808184608C9311C0F0
:10276000A5E5B0E0E5E5F0E0808188608C93A5E523
:10277000B0E0E5E5F0E0808184608C9302C081E008
:10278000898389810F900F900F900F90CF91DF91E7
:102790000895DF93CF9300D000D0CDB7DEB78A8302
:1027A00019828A81282F30E03C832B838B819C8186
:1027B0008330910531F02B813C812430310549F083
:1027C00010C0A4E5B0E0E4E5F0E080818F7B8C935D
:1027D0000AC0A4E5B0E0E4E5F0E0808180648C9379
:1027E00002C081E0898389810F900F900F900F9034
:1027F000CF91DF910895DF93CF9300D000D0CDB774
:10280000DEB78A8319828A81282F30E03C832B83AC
:102810008B819C818230910591F02B813C8123300A
:102820003105A9F08B819C8181309105C1F4ABE524
:10283000B0E0EBE5F0E0808180648C9312C0ABE502
:10284000B0E0EBE5F0E0808180688C930AC0ABE5F6
:10285000B0E0EBE5F0E0808180628C9302C081E023
:10286000898389810F900F900F900F90CF91DF9106
:102870000895DF93CF9300D000D0CDB7DEB78A8321
:1028800019828A81282F30E03C832B838B819C81A5
:102890008230910591F02B813C8123303105A9F0E4
:1028A0008B819C8181309105C1F4ABE5B0E0EBE513
:1028B000F0E080818F7B8C9312C0ABE5B0E0EBE55C
:1028C000F0E080818F778C930AC0ABE5B0E0EBE558
:1028D000F0E080818F7D8C9302C081E089838981C3
:1028E0000F900F900F900F90CF91DF910895DF938D
:1028F000CF9300D00F92CDB7DEB79B838A83198226
:102900008A819B81009739F08A819B819093B703DC
:102910008093B60302C082E0898389810F900F9073
:102920000F90CF91DF9108951F920F920FB60F92E3
:1029300011242F933F934F935F936F937F938F93C4
:102940009F93AF93BF93EF93FF93DF93CF93CDB755
:10295000DEB78091B6039091B703009729F0E0911C
:10296000B603F091B7030995CF91DF91FF91EF91F5
:10297000BF91AF919F918F917F916F915F914F9197
:102980003F912F910F900FBE0F901F901895DF93DE
:10299000CF9300D00F92CDB7DEB79B838A83198285
:1029A0008A819B81009739F08A819B819093B9033A
:1029B0008093B80302C082E0898389810F900F90D1
:1029C0000F90CF91DF9108951F920F920FB60F9243
:1029D00011242F933F934F935F936F937F938F9324
:1029E0009F93AF93BF93EF93FF93DF93CF93CDB7B5
:1029F000DEB78091B8039091B903009729F0E09178
:102A0000B803F091B9030995CF91DF91FF91EF9150
:102A1000BF91AF919F918F917F916F915F914F91F6
:102A20003F912F910F900FBE0F901F901895DF933D
:102A3000CF9300D00F92CDB7DEB79B838A831982E4
:102A40008A819B81009739F08A819B819093BB0397
:102A50008093BA0302C082E0898389810F900F902E
:102A60000F90CF91DF9108951F920F920FB60F92A2
:102A700011242F933F934F935F936F937F938F9383
:102A80009F93AF93BF93EF93FF93DF93CF93CDB714
:102A9000DEB78091BA039091BB03009729F0E091D3
:102AA000BA03F091BB030995CF91DF91FF91EF91AC
:102AB000BF91AF919F918F917F916F915F914F9156
:102AC0003F912F910F900FBE0F901F901895DF939D
:102AD000CF93CDB7DEB7AFE5B0E0EFE5F0E08081B2
:102AE00080688C93CF91DF910895DF93CF93CDB71A
:102AF000DEB7AFE5B0E0EFE5F0E080818F778C9353
:102B0000CF91DF910895DF93CF9300D000D00F9243
:102B1000CDB7DEB78FEF8B831A825EC08A81882F94
:102B200090E0FC01EA56FC4F908181E0692F40E083
:102B30000E94B11019823DC08981882F90E0FC016C
:102B4000EE56FC4F90819E012C5F3F4F81E0692F34
:102B5000A9010E9408128C81882341F58981482FA0
:102B600050E08A81282F30E0CA01880F991F880F12
:102B7000991F820F931FFC01E656FC4F80818B83C7
:102B80000FC08981882F90E0FC01EE56FC4F9081A8
:102B90009E012C5F3F4F81E0692FA9010E9408121E
:102BA0008C81882371F38B818D831CC089818F5F19
:102BB00089838981843008F4BFCF8A81882F90E08F
:102BC000FC01EA56FC4F908181E0692F41E00E94B0
:102BD000B1108A818F5F8A838A81843008F49ECF06
:102BE0008B818D838D810F900F900F900F900F90A0
:102BF000CF91DF910895DF93CF930F92CDB7DEB7DA
:102C000089838981882F90E0A0E0B0E028E833E153
:102C100040E050E0BC01CD010E941024DC01CB015A
:102C2000892F9A2FAB2FBB270F90CF91DF9108955B
:102C3000DF93CF9300D0CDB7DEB78A838A818983B3
:102C400089810F900F90CF91DF910895DF93CF93FB
:102C500000D000D0CDB7DEB79C838B838B819C8165
:102C6000CC01A0E0B0E028E833E140E050E0BC0156
:102C7000CD010E941024DC01CB01BC01CD010E94DA
:102C80000705DC01CB01BC01CD0120E030E040E2D2
:102C900056E40E941903DC01CB01BC01CD010E9466
:102CA0004900DC01CB019A83898389819A810F9045
:102CB0000F900F900F90CF91DF910895AF92BF9238
:102CC000CF92DF92EF92FF920F931F93DF93CF93F8
:102CD000CDB7DEB760970FB6F894DEBF0FBECDBF9D
:102CE00069837A838B839C832D833E834F835887AC
:102CF000E986FA860B871C87AD86BE86CF86D88A82
:102D00002D853E854F85588989859A85AB85BC85FB
:102D100079018A01E81AF90A0A0B1B0B2D8D3E8DE9
:102D20004F8D58A189819A81AB81BC81281B390BB9
:102D30004A0B5B0BC801B7010E9410247B018C0178
:102D40002D813E814F81588589819A81AB81BC81DB
:102D5000281B390B4A0B5B0BC801B7010E94512499
:102D6000DA01C9019C01AD0189859A85AB85BC85D5
:102D7000820F931FA41FB51FBC01CD0160960FB633
:102D8000F894DEBF0FBECDBFCF91DF911F910F91A1
:102D9000FF90EF90DF90CF90BF90AF900895DF93BA
:102DA000CF93CDB7DEB7EAE3F0E08EE78083E7E3C9
:102DB000F0E08BE08083E4E3F0E08FEF8083E1E3F9
:102DC000F0E08EE38083EBE3F0E01082E8E3F0E0F4
:102DD00080EF8083E5E3F0E01082E2E3F0E080E75B
:102DE0008083CF91DF910895DF93CF93CDB7DEB786
:102DF000AFE4B0E0EFE4F0E0808180688C93AFE472
:102E0000B0E0EFE4F0E080818F7B8C93AFE4B0E042
:102E1000EFE4F0E080818E7F8C93AFE4B0E0EFE4EC
:102E2000F0E0808182608C93AEE4B0E0EEE4F0E00C
:102E3000808188608C93AEE4B0E0EEE4F0E08081C5
:102E400080618C93AEE4B0E0EEE4F0E08081887FB6
:102E50008C93AEE4B0E0EEE4F0E0808182608C938D
:102E6000E6E4F0E080E49CE991838083CF91DF91F8
:102E70000895DF93CF9300D0CDB7DEB79A838983CF
:102E8000EAE4F0E089819A81918380830F900F902A
:102E9000CF91DF910895DF93CF9300D0CDB7DEB708
:102EA0009A838983ECE4F0E089819A81918380831D
:102EB0000F900F90CF91DF910895DF93CF93CDB70F
:102EC000DEB7ECE4F0E080819181CF91DF9108954D
:102ED000DF93CF93CDB7DEB7AFE4B0E0EFE4F0E03F
:102EE00080818E7F8C93AFE4B0E0EFE4F0E08081EE
:102EF0008D7F8C93AEE4B0E0EEE4F0E08081877FDC
:102F00008C93AEE4B0E0EEE4F0E080818F7E8C93B1
:102F1000AEE4B0E0EEE4F0E08081887F8C93AEE434
:102F2000B0E0EEE4F0E0808182608C93AEE4B0E04B
:102F3000EEE4F0E0808180648C93A9E5B0E0E9E5FF
:102F4000F0E0808180628C93CF91DF910895DF93D0
:102F5000CF9300D0CDB7DEB78A8319828A818130C2
:102F600041F4AEE4B0E0EEE4F0E080818F7B8C933E
:102F70000DC08A81823041F4AEE4B0E0EEE4F0E0CE
:102F8000808180648C9302C081E0898389810F9065
:102F90000F90CF91DF910895DF93CF93CDB7DEB738
:102FA000E6E4F0E080819181CC01A0E0B0E0BC01DA
:102FB000CD01CF91DF910895DF93CF93CDB7DEB7E9
:102FC000A9E5B0E0E9E5F0E0808180628C93CF91E3
:102FD000DF910895DF93CF93CDB7DEB7A9E5B0E0D9
:102FE000E9E5F0E080818F7D8C93CF91DF910895AA
:102FF000DF93CF9300D000D0CDB7DEB78A837C8338
:103000006B8319828B819C81009769F08A81882F5C
:1030100090E0880F991FFC01E454FC4F8B819C8148
:103020009183808302C081E0898389810F900F9012
:103030000F900F90CF91DF910895DF93CF93CDB78D
:10304000DEB7A3E5B0E0E3E5F0E0808180648C9337
:10305000A3E5B0E0E3E5F0E0808188608C93A3E530
:10306000B0E0E3E5F0E080818F7E8C93A3E5B0E0F3
:10307000E3E5F0E0808180628C93A3E5B0E0E3E5D6
:10308000F0E08081887F8C93A3E5B0E0E3E5F0E099
:10309000808182608C93CF91DF910895DF93CF93ED
:1030A000CDB7DEB7A3E5B0E0E3E5F0E080818F7E49
:1030B0008C93A3E5B0E0E3E5F0E080818F7D8C9315
:1030C000CF91DF910895DF93CF930F92CDB7DEB705
:1030D0008983ECE5F0E0898180830F90CF91DF91C7
:1030E0000895DF93CF93CDB7DEB7E9E2F0E083E355
:1030F0008083E0E4F0E01082A0E4B0E0E0E4F0E0FF
:10310000808180688C93A0E4B0E0E0E4F0E080810E
:103110008F7D8C93A0E4B0E0E0E4F0E080818F7ECE
:103120008C93A0E4B0E0E0E4F0E0808180688C93D0
:10313000A0E4B0E0E0E4F0E08081877F8C93A0E43D
:10314000B0E0E0E4F0E0808180688C93A0E4B0E03F
:10315000E0E4F0E0808182608C93A0E4B0E0E0E401
:10316000F0E0808184608C93AAE2B0E0EAE2F0E0D3
:1031700080818B7F8C93AAE2B0E0EAE2F0E080816C
:1031800088608C93AAE2B0E0EAE2F0E0808180619E
:103190008C93CF91DF910895DF93CF9300D000D02F
:1031A000CDB7DEB78C831B821A821982ECE2F0E085
:1031B0008C81808305C089819A8101969A83898355
:1031C000EBE2F0E08081829586958770882F90E011
:1031D00081709070009731F489819A812CE9803454
:1031E000920748F389819A812CE98034920711F47F
:1031F00081E08B838B810F900F900F900F90CF9178
:10320000DF910895DF93CF9300D000D00F92CDB718
:10321000DEB79D838C831B821A8219828C819D81EB
:10322000009799F12CC0ECE2F0E0AC81BD818C916B
:10323000808305C089819A8101969A838983EBE214
:10324000F0E08081829586958770882F90E081706C
:103250009070009731F489819A812CE9803492072B
:1032600048F389819A812CE98034920719F481E02E
:103270008B830DC08C819D8101969D838C83EC8115
:10328000FD818081882379F602C081E08B838B8168
:103290000F900F900F900F900F90CF91DF910895A6
:1032A000DF93CF9300D000D00F92CDB7DEB79B83D2
:1032B0008A837D836C8319828A819B810097D1F0F8
:1032C0008C819D810097B1F01092D4038A819B81FB
:1032D0009093D1038093D0038C819D819093CF03F1
:1032E0008093CE03AAE2B0E0EAE2F0E0808180625F
:1032F0008C9302C081E0898389810F900F900F9099
:103300000F900F90CF91DF910895DF93CF9300D06E
:1033100000D00F92CDB7DEB79D838C831B821A82BB
:1033200019828C819D81009709F105C089819A815C
:1033300001969A838983EBE2F0E08081882334F060
:1033400089819A812CE98034920780F389819A815E
:103350002CE98034920719F481E08B8309C0ECE2F8
:10336000F0E08081EC81FD81808302C081E08B836D
:103370008B810F900F900F900F900F90CF91DF9156
:103380000895DF93CF9300D000D000D0CDB7DEB743
:103390009E838D831C821B821A8219828D819E815D
:1033A000009709F43EC028C089819A8101969A83CA
:1033B0008983EBE2F0E08081882334F089819A816F
:1033C0002CE98034920780F389819A812CE980343A
:1033D000920719F481E08C831AC08B81282F30E08A
:1033E0008D819E81DC01A20FB31FECE2F0E08081B1
:1033F0008C938B818F5F8B838B81282F30E08D8125
:103400009E81FC01E20FF31F80818D3091F68B814C
:10341000282F30E08D819E81FC01E20FF31F108286
:1034200002C081E08C838C8126960FB6F894DEBFB3
:103430000FBECDBFCF91DF910895DF93CF9300D022
:1034400000D00F92CDB7DEB79B838A837D836C83D8
:1034500019828A819B810097D1F08C819D81009790
:10346000B1F01092D4038A819B819093D30380930F
:10347000D2038C819D819093CF038093CE03AAE2E7
:10348000B0E0EAE2F0E0808180628C9302C081E0EB
:10349000898389810F900F900F900F900F90CF919B
:1034A000DF910895DF93CF93CDB7DEB72091D2039C
:1034B0003091D3038091D403882F90E0D901A80FD5
:1034C000B91FECE2F0E080818C938091D4038F5F90
:1034D0008093D4032091D2033091D3038091D403FD
:1034E000882F90E00197F901E80FF91F80818D3056
:1034F000D1F41092D4032091D2033091D303809160
:10350000D403882F90E0F901E80FF91F1082AAE296
:10351000B0E0EAE2F0E080818F778C93E091CE0317
:10352000F091CF030995CF91DF910895DF93CF9369
:10353000CDB7DEB7ACE2B0E02091D0033091D1033B
:103540008091D403882F90E0F901E80FF91F808162
:103550008C938091D4038F5F8093D4032091D00308
:103560003091D1038091D403882F90E0F901E80FC6
:10357000F91F8081882371F41092D403AAE2B0E08D
:10358000EAE2F0E080818F7D8C93E091CE03F091B0
:10359000CF030995CF91DF910895DF93CF93CDB7F6
:1035A000DEB7CF91DF910895DF93CF9300D0CDB7F1
:1035B000DEB78DE00E94CC1889838981882319F0B9
:1035C00089818A8304C08AE00E94CC188A838A8118
:1035D0000F900F90CF91DF9108950F931F93DF937A
:1035E000CF93CDB7DEB7CE55D0400FB6F894DEBF3F
:1035F0000FBECDBFFE01E25BFF4F81E38083FE0182
:10360000E25BFF4F82E38183FE01E25BFF4F83E3D6
:103610008283FE01E25BFF4F84E38383FE01EE5A67
:10362000FF4F84E38083FE01EE5AFF4F83E38183E3
:10363000FE01EE5AFF4F82E38283FE01EE5AFF4FF6
:1036400081E38383FE01EA5AFF4F108211821282C6
:103650001382FE01E65AFF4F1082118212821382FA
:10366000FE01E35BFF4F81E08083FE01E45BFF4FDF
:1036700081E08083FE01E55BFF4F83E08083FE01F4
:10368000E65BFF4F1082FE01E75BFF4F108283E095
:1036900060E00E942D0E80E690E00E948A0DFE01FF
:1036A000ED5BFF4F80E090E0AAEFB4E4808391836C
:1036B000A283B3838E01015C1F4FFE01ED5BFF4FC0
:1036C000608171818281938120E030E04AEF54E48F
:1036D0000E941F02DC01CB01F80180839183A28349
:1036E000B383FE01FF96608171818281938120E026
:1036F00030E040E85FE30E94250488232CF481E059
:1037000090E09EAF8DAF46C0FE01FF966081718153
:103710008281938120E03FEF4FE757E40E94C50389
:10372000181664F5FE01ED5BFF4F608171818281A7
:10373000938120E030E040E251E40E941F02DC016E
:10374000CB01BC01CD010E944900DC01CB019EAF41
:103750008DAF0FC088EC90E09CAF8BAF8BAD9CAD74
:103760000197F1F79CAF8BAF8DAD9EAD01979EAFEA
:103770008DAF8DAD9EAD009769F79DC2FE01FF969E
:1037800060817181828193810E944900DC01CB01BB
:103790009EAF8DAF8DAD9EAD9AAF89AF89AD9AAD1D
:1037A0000197F1F79AAF89AF86C2FE01E35BFF4F45
:1037B00081E08083FE01E45BFF4F81E08083FE01B6
:1037C000E65BFF4F1082FE01E75BFF4F108281E056
:1037D0000E949E098BE690E00E948A0D81E060E0E5
:1037E0000E942D0E87E790E00E9402190E94D41AD1
:1037F00027C0CE01825A9F4F0E948519882301F568
:10380000FE01E65BFF4F8081282F30E0FE01E25A87
:10381000FF4F4081CE018A5A9F4FFC01E20FF31FF8
:103820004083DE01A65BBF4FFE01E65BFF4F808158
:103830008F5F8C93FE01E25AFF4F80810E94050B3F
:10384000FE01E65BFF4F8081843098F2FE01E85B69
:10385000FF4F108229C0FE01E85BFF4F8081282FB7
:1038600030E0CE018A5A9F4FFC01E20FF31F4081E6
:10387000FE01E85BFF4F8081282F30E0CE01825BA4
:103880009F4FFC01E20FF31F8081481721F0FE01DA
:10389000E35BFF4F1082DE01A85BBF4FFE01E85BD8
:1038A000FF4F80818F5F8C93FE01E85BFF4F80812B
:1038B000843088F20E94D41A81E00E949E0983E835
:1038C00090E00E948A0D81E060E00E942D0E83E965
:1038D00090E00E9402190E94D41A27C0CE01825A99
:1038E0009F4F0E948519882301F5FE01E75BFF4F7A
:1038F0008081282F30E0FE01E25AFF4F4081CE0147
:10390000865A9F4FFC01E20FF31F4083DE01A75B45
:10391000BF4FFE01E75BFF4F80818F5F8C93FE01FD
:10392000E25AFF4F80810E94050BFE01E75BFF4FCB
:103930008081843098F2FE01E95BFF4F108229C03C
:10394000FE01E95BFF4F8081282F30E0CE01865ACF
:103950009F4FFC01E20FF31F4081FE01E95BFF4F27
:103960008081282F30E0CE018E5A9F4FFC01E20F5C
:10397000F31F8081481721F0FE01E45BFF4F1082A6
:10398000DE01A95BBF4FFE01E95BFF4F80818F5FC6
:103990008C93FE01E95BFF4F8081843088F20E94A6
:1039A000D41AFE01E35BFF4F8081882309F481C0B4
:1039B000FE01E45BFF4F8081882309F47AC081E037
:1039C0000E949E0984EA90E00E948A0D80E090E0C7
:1039D000AAEFB4E48DAB9EABAFABB8AF6DA97EA937
:1039E0008FA998AD20E030E04AEF54E40E941F0216
:1039F000DC01CB0189AB9AABABABBCAB69A97AA9B3
:103A00008BA99CA920E030E040E85FE30E942504F8
:103A100088232CF481E090E098AB8FA73FC069A980
:103A20007AA98BA99CA920E03FEF4FE757E40E94B9
:103A3000C50318164CF56DA97EA98FA998AD20E095
:103A400030E040E251E40E941F02DC01CB01BC01E6
:103A5000CD010E944900DC01CB0198AB8FA70FC0BC
:103A600088EC90E09EA78DA78DA59EA50197F1F704
:103A70009EA78DA78FA598A9019798AB8FA78FA513
:103A800098A9009769F71EC169A97AA98BA99CA971
:103A90000E944900DC01CB0198AB8FA78FA598A9A4
:103AA0009CA78BA78BA59CA50197F1F79CA78BA73B
:103AB00009C181E00E949E0984EB90E00E948A0D7A
:103AC000DE01A55BBF4FFE01E55BFF4F80818150AA
:103AD0008C93FE01E55BFF4F8081882309F4EBC0E6
:103AE00080E090E0AAEFB4E48FA398A7A9A7BAA7B3
:103AF0006FA178A589A59AA520E030E04AEF54E4AB
:103B00000E941F02DC01CB018BA39CA3ADA3BEA32B
:103B10006BA17CA18DA19EA120E030E040E85FE395
:103B20000E94250488232CF481E090E09AA389A3C5
:103B30003FC06BA17CA18DA19EA120E03FEF4FE78C
:103B400057E40E94C50318164CF56FA178A589A506
:103B50009AA520E030E040E251E40E941F02DC011F
:103B6000CB01BC01CD010E944900DC01CB019AA32D
:103B700089A30FC088EC90E098A38F8F8F8D98A1B8
:103B80000197F1F798A38F8F89A19AA101979AA322
:103B900089A389A19AA1009769F714C06BA17CA1A0
:103BA0008DA19EA10E944900DC01CB019AA389A3AB
:103BB00089A19AA19E8F8D8F8D8D9E8D0197F1F792
:103BC0009E8F8D8F81E00E949E098BEC90E00E9479
:103BD0008A0D80E090E0AAEFB4E4898F9A8FAB8FD2
:103BE000BC8F698D7A8D8B8D9C8D20E030E04AEF03
:103BF00054E40E941F02DC01CB018D8B9E8BAF8BA6
:103C0000B88F6D897E898F89988D20E030E040E8FB
:103C10005FE30E94250488232CF481E090E09C8BD4
:103C20008B8B3FC06D897E898F89988D20E03FEF17
:103C30004FE757E40E94C50318164CF5698D7A8D3D
:103C40008B8D9C8D20E030E040E251E40E941F0209
:103C5000DC01CB01BC01CD010E944900DC01CB019C
:103C60009C8B8B8B0FC088EC90E09A8B898B898919
:103C70009A890197F1F79A8B898B8B899C89019797
:103C80009C8B8B8B8B899C89009769F714C06D89FD
:103C90007E898F89988D0E944900DC01CB019C8B25
:103CA0008B8B8B899C89988B8F878F8598890197BF
:103CB000F1F7988B8F87FE01E55BFF4F80818823AA
:103CC00009F073CDFE01E35BFF4F8081882339F05B
:103CD000FE01E45BFF4F8081882309F079C080E01A
:103CE00090E0AAEFB4E48B879C87AD87BE876B8595
:103CF0007C858D859E8520E030E04AEF54E40E946B
:103D00001F02DC01CB018F839887A987BA876F8157
:103D1000788589859A8520E030E040E85FE30E945D
:103D2000250488232CF481E090E09E838D833FC09E
:103D30006F81788589859A8520E03FEF4FE757E4CA
:103D40000E94C50318164CF56B857C858D859E8574
:103D500020E030E040E251E40E941F02DC01CB0190
:103D6000BC01CD010E944900DC01CB019E838D8303
:103D70000FC088EC90E09C838B838B819C810197A2
:103D8000F1F79C838B838D819E8101979E838D8328
:103D90008D819E81009769F714C06F817885898530
:103DA0009A850E944900DC01CB019E838D838D8121
:103DB0009E819A83898389819A810197F1F79A83F9
:103DC000898381E00E949E0987ED90E00E948A0D20
:103DD000C25ADF4F0FB6F894DEBF0FBECDBFCF91F2
:103DE000DF911F910F910895DF93CF9300D000D002
:103DF000CDB7DEB79C838B838B819C81CC01A0E007
:103E0000B0E028E833E140E050E0BC01CD010E9481
:103E10001024DC01CB01BC01CD010E940705DC01AF
:103E2000CB01BC01CD0120E030E040E256E40E942D
:103E30001903DC01CB01BC01CD010E944900DC016A
:103E4000CB019A83898389819A810F900F900F907B
:103E50000F90CF91DF910895DF93CF93CDB7DEB769
:103E600080E797E10E943917CF91DF910895DF93A2
:103E7000CF93CDB7DEB788EE93E00E943917CF918C
:103E8000DF910895DF93CF9300D000D0CDB7DEB798
:103E90009E012D5F3F4F87E0B9010E94BB07882339
:103EA000B1F48B819C810E94F41E9A83898389815D
:103EB0009A818F31910530F083E063E041E00E9408
:103EC000B11005C083E063E040E00E94B1100F90A4
:103ED0000F900F900F90CF91DF910895AF92BF9206
:103EE000CF92DF92EF92FF920F931F93DF93CF93C6
:103EF00000D000D0CDB7DEB79E012D5F3F4F80E0F0
:103F0000B9010E94BB07882309F043C08B819C81C3
:103F1000CC01A0E0B0E000D000D0EDB7FEB7319604
:103F200080839183A283B38360E070E080E090E0BF
:103F30002FEF30E040E050E0EE24FF2487010F2E09
:103F4000F7E0AF2EF0E0BF2EF0E0CF2EF0E0DF2E56
:103F5000F02D0E945E160F900F900F900F90DC01D5
:103F6000CB018A83198212C099818A81981730F413
:103F700082E0698141E00E94B11005C082E0698160
:103F800040E00E94B11089818F5F898389818830E8
:103F900058F30F900F900F900F90CF91DF911F91DA
:103FA0000F91FF90EF90DF90CF90BF90AF9008956A
:103FB000DF93CF93CDB7DEB7C454D0400FB6F8949B
:103FC000DEBF0FBECDBFFE01FD966083718382838D
:103FD0009383FE01EF5BFF4F208331834283538342
:103FE00080E492E4AFE0B0E0FE01FD9620813181F3
:103FF00042815381BC01CD010E942F24DA01C90105
:1040000089AF9AAFABAFBCAF89AD9AADABADBCAD2C
:10401000B695A795979587958DAB9EABAFABB8AF8F
:1040200019AA1AAA1BAA1CAA99C183E062E04FEF41
:104030000E94B1106DA97EA98FA998AD0E940705B5
:10404000DC01CB018DA79EA7AFA7B8AB6DA57EA560
:104050008FA598A92BEA3AEA4AE250E40E941F028F
:10406000DC01CB0189A79AA7ABA7BCA769A57AA554
:104070008BA59CA520E030E040E85FE30E9425048A
:1040800088231CF481E088A791C069A57AA58BA537
:104090009CA520E030E04FE753E40E94C5031816CA
:1040A0000CF07BC06DA57EA58FA598A920E030E01F
:1040B0004AE754E40E941903DC01CB018CA39DA3C1
:1040C000AEA3BFA36CA17DA18EA19FA120E030E093
:1040D0004AEF54E40E941F02DC01CB0188A399A39C
:1040E000AAA3BBA368A179A18AA19BA120E030E08B
:1040F00040E85FE30E94250488232CF481E090E0EF
:104100009F8F8E8F3FC068A179A18AA19BA120E0DB
:104110003FEF4FE757E40E94C50318164CF56CA11A
:104120007DA18EA19FA120E030E040E251E40E94F9
:104130001F02DC01CB01BC01CD010E944900DC0162
:10414000CB019F8F8E8F0FC088EC90E09D8F8C8F5E
:104150008C8D9D8D0197F1F79D8F8C8F8E8D9F8D0E
:1041600001979F8F8E8F8E8D9F8D009769F724C04A
:1041700068A179A18AA19BA10E944900DC01CB0121
:104180009F8F8E8F8E8D9F8D9B8F8A8F8A8D9B8D1B
:104190000197F1F79B8F8A8F0FC069A57AA58BA530
:1041A0009CA50E944900DC01CB0188A788A5898FC6
:1041B000898D8A95F1F7898F83E062E040E00E9463
:1041C000B1106DA97EA98FA998AD0E940705DC01E9
:1041D000CB018D8B9E8BAF8BB88F6D897E898F893C
:1041E000988D2BEA3AEA4AE250E40E941F02DC0171
:1041F000CB01898B9A8BAB8BBC8B69897A898B8934
:104200009C8920E030E040E85FE30E942504882399
:104210001CF481E0888B91C069897A898B899C899B
:1042200020E030E04FE753E40E94C50318160CF07D
:104230007BC06D897E898F89988D20E030E04AE7C8
:1042400054E40E941903DC01CB018C879D87AE8763
:10425000BF876C857D858E859F8520E030E04AEFA5
:1042600054E40E941F02DC01CB0188879987AA874A
:10427000BB87688579858A859B8520E030E040E8AA
:104280005FE30E94250488232CF481E090E09F8363
:104290008E833FC0688579858A859B8520E03FEFC6
:1042A0004FE757E40E94C50318164CF56C857D85D1
:1042B0008E859F8520E030E040E251E40E941F029D
:1042C000DC01CB01BC01CD010E944900DC01CB0126
:1042D0009F838E830FC088EC90E09D838C838C81BC
:1042E0009D810197F1F79D838C838E819F8101973A
:1042F0009F838E838E819F81009769F724C0688594
:1043000079858A859B850E944900DC01CB019F83CA
:104310008E838E819F819B838A838A819B81019773
:10432000F1F79B838A830FC069897A898B899C897D
:104330000E944900DC01CB01888B888989838981AF
:104340008A95F1F7898389A99AA9ABA9BCA9019695
:10435000A11DB11D89AB9AABABABBCABFE01EF5B52
:10436000FF4F80819181A281B381FE01FD96208162
:10437000318142815381BC01CD010E941024DC01B6
:10438000CB0128EE33E040E050E0BC01CD010E94BB
:104390002F24DA01C9019C01AD0189A99AA9ABA911
:1043A000BCA982179307A407B50708F43ECECC5BDF
:1043B000DF4F0FB6F894DEBF0FBECDBFCF91DF91B8
:1043C0000895DF93CF93CDB7DEB786EE90E00E94DD
:1043D00002190E94D41A8CEF90E00E9402190E94E8
:1043E000D41A83E191E00E9402190E94D41A89E351
:1043F00091E00E9402190E94D41A8BE491E00E947D
:1044000002190E94D41A8EE591E00E9402190E94BE
:10441000D41A8FE691E00E9402190E94D41A81E812
:1044200091E00E9402190E94D41A82EB91E00E944E
:1044300002190E94D41ACF91DF910895AF92BF92D2
:10444000CF92DF92EF92FF920F931F93DF93CF9360
:10445000CDB7DEB7A7970FB6F894DEBF0FBECDBFBE
:104460009E012A5F3F4F87E0B9010E94BB07882366
:1044700009F06BC09E012C5F3F4F80E0B9010E94A4
:10448000BB07882309F061C08E819F810E94F41EC2
:104490009A8389838C819D81CC01A0E0B0E000D01B
:1044A00000D0EDB7FEB7319680839183A283B383AA
:1044B00060E070E080E090E02FEF30E040E050E01E
:1044C000EE24FF248701AA24BB2465016894A3F885
:1044D0000E945E160F900F900F900F90DC01CB01A1
:1044E0008B830E94270F80E060E00E942D0E80ECFD
:1044F00091E00E948A0D8EEC91E00E948A0D80E08E
:104500006DE00E942D0E89819A81CC01A0E0B0E07F
:10451000BC01CD010E94940E81E060E00E942D0E4E
:1045200082ED91E00E948A0D8EEC91E00E948A0D4E
:1045300081E06DE00E942D0E8B81882F90E0A0E03D
:10454000B0E0BC01CD010E94940EA7960FB6F8947E
:10455000DEBF0FBECDBFCF91DF911F910F91FF90B6
:10456000EF90DF90CF90BF90AF900895DF93CF93FF
:10457000CDB7DEB762970FB6F894DEBF0FBECDBFE2
:104580001F860E94CF160E9471180E9475070E9414
:104590006C0C0E941D180E94F4160E94ED1A0E94D5
:1045A000D41A8DED91E00E9402190E94D41A0E9443
:1045B000E1210E94D41A0E941E22CE0140960E9440
:1045C00085198823D1F788898F878F85282F30E038
:1045D0003A8B298B89899A898433910509F463C0C0
:1045E00029893A8925333105DCF489899A8981330F
:1045F0009105D1F129893A892233310534F4898929
:104600009A8980339105B9F204C129893A89223304
:104610003105A9F189899A8983339105D9F1F9C0C6
:1046200029893A892733310509F45BC089899A8938
:104630008833910564F429893A8925333105E1F1FC
:1046400089899A898633910509F43FC0E2C0298996
:104650003A892833310509F450C089899A89893308
:10466000910509F453C0D5C082E06FEF0E94C011DC
:1046700080EF91E00E9402190E94D41A9CCF82E040
:1046800060E00E94C01189EF91E00E9402190E942F
:10469000D41A91CF0E946E1F83E092E00E9402190B
:1046A0000E94D41A88CF0E942C1F88E192E00E94B9
:1046B00002190E94D41A7FCF0E94371F85E292E030
:1046C0000E9402190E94D41A76CF83E063E041E091
:1046D0000E94B11082E392E00E9402190E94D41A53
:1046E0006ACF83E063E040E00E94B1108BE392E088
:1046F0000E9402190E94D41A5ECF0E94421F85E4D4
:1047000092E00E9402190E94D41A55CF66E071E02F
:1047100080E090E024EF31E040E050E00E94D81FBC
:1047200080E090E0A8ECB2E48B879C87AD87BE87E1
:104730006B857C858D859E8520E030E04AEF54E4D2
:104740000E941F02DC01CB018F839887A987BA875B
:104750006F81788589859A8520E030E040E85FE3C5
:104760000E94250488232CF481E090E09E838D83B1
:104770003FC06F81788589859A8520E03FEF4FE7BC
:1047800057E40E94C50318164CF56B857C858D8512
:104790009E8520E030E040E251E40E941F02DC01EF
:1047A000CB01BC01CD010E944900DC01CB019E83FD
:1047B0008D830FC088EC90E09C838B838B819C81E0
:1047C0000197F1F79C838B838D819E8101979E8356
:1047D0008D838D819E81009769F714C06F817885E4
:1047E00089859A850E944900DC01CB019E838D83D7
:1047F0008D819E819A83898389819A810197F1F7BE
:104800009A8389838DE592E00E9402190E94D41A4E
:10481000D2CE88E692E00E9402190E94D41ACBCE32
:10482000629FD001739FF001829FE00DF11D649F94
:10483000E00DF11D929FF00D839FF00D749FF00D20
:10484000659FF00D9927729FB00DE11DF91F639FC1
:10485000B00DE11DF91FBD01CF0111240895A1E2A2
:104860001A2EAA1BBB1BFD010DC0AA1FBB1FEE1FEA
:10487000FF1FA217B307E407F50720F0A21BB30B35
:10488000E40BF50B661F771F881F991F1A9469F7B1
:1048900060957095809590959B01AC01BD01CF010D
:1048A000089597FB092E05260ED057FD04D0D7DFBB
:1048B0000AD0001C38F450954095309521953F4F13
:1048C0004F4F5F4F0895F6F79095809570956195DD
:1048D0007F4F8F4F9F4F08952F923F924F925F923D
:1048E0006F927F928F929F92AF92BF92CF92DF9200
:1048F000EF92FF920F931F93CF93DF93CDB7DEB765
:10490000CA1BDB0B0FB6F894DEBF0FBECDBF0994F8
:104910002A88398848885F846E847D848C849B844F
:10492000AA84B984C884DF80EE80FD800C811B815D
:10493000AA81B981CE0FD11D0FB6F894DEBF0FBE8C
:0A494000CDBFED010895F894FFCFFC
:10494A0057656C636F6D652E2E2E00456E74657209
:10495A00204944203A2000456E746572204944205B
:10496A003A0A00456E7465722050617373776F72EC
:10497A00643A00456E7465722050617373776F7282
:10498A00643A0A0057656C636F6D6520596F7573D9
:10499A0073656600496E76616C6964204944206FCC
:1049AA00722050617373776F726400547279204178
:1049BA006761696E2E2E00496E76616C6964204CBF
:1049CA006F67696E2000312D205475726E206F6EEC
:1049DA0020746865206C696768740A00322D205457
:1049EA0075726E206F666620746865206C696768E8
:1049FA00740A00332D20436F6E74726F6C206C69D9
:104A0A00676874202D3E207573696E67204C445286
:104A1A002073656E736F720A00342D204F70656EB5
:104A2A002074686520646F6F720A00352D20436C0C
:104A3A006F73652074686520646F6F720A00362D83
:104A4A00204F70656E207468652066616E0A0037B3
:104A5A002D20436C6F7365207468652066616E0A49
:104A6A0000382D20436F6E74726F6C207468652055
:104A7A0066616E207370656564202D3E20757369CA
:104A8A006E6720706F74656E74696F6D6574657298
:104A9A000A00392D20506C617920746F6E650A0006
:104AAA0054656D70657261747572653A20002020D4
:104ABA0020006E756D5F6C6564733A200043686F01
:104ACA006F736520616E206F7074696F6E3A0A00A9
:104ADA004C4544204F4E200A004C4544204F464640
:104AEA00200A004C45445320554E44455220434F1A
:104AFA004E54524F4C200A00444F4F52204F5045BB
:104B0A004E20200A00444F4F5220434C4F53452019
:104B1A000A0046414E204F4E200A0046414E204F81
:104B2A004646200A0046414E20636F6E74726F6CCF
:104B3A0020576974682054454D50200A004D55533A
:104B4A004943204F4E200A00496E76616C69642001
:104B5A006F7074696F6E2C20706C65617365207458
:104B6A00727920616761696E0A0000000000000026
:104B7A000000000102020303030304040404040402
:104B8A0004040505050505050505050505050505CD
:104B9A0005050606060606060606060606060606AD
:104BAA00060606060606060606060606060606069B
:104BBA00060607070707070707070707070707077D
:104BCA00070707070707070707070707070707076B
:104BDA00070707070707070707070707070707075B
:104BEA00070707070707070707070707070707074B
:104BFA00070708080808080808080808080808082D
:104C0A00080808080808080808080808080808081A
:104C1A00080808080808080808080808080808080A
:104C2A0008080808080808080808080808080808FA
:104C3A0008080808080808080808080808080808EA
:104C4A0008080808080808080808080808080808DA
:104C5A0008080808080808080808080808080808CA
:104C6A0008080808080808080808080808080808BA
:104C7A00080804050607020304053738392F3435B6
:0A4C8A00362A3132332D63303D2B02
:00000001FF
